:020000040800F2
:10000000D80400209D0100089D1B00080D19000860
:10001000D11A0008CB060008652300080000000084
:10002000000000000000000000000000A11B00080C
:10003000CD060008000000009F1B0008491C0008B6
:10004000B7010008B7010008B7010008B7010008B0
:10005000B7010008B7010008B7010008B7010008A0
:10006000B7010008B7010008B7010008B701000890
:10007000B7010008B7010008B7010008B701000880
:10008000B7010008B7010008B7010008B701000870
:10009000B7010008B7010008B7010008CF06000843
:1000A000B7010008B7010008B7010008B701000850
:1000B000B7010008B7010008B7010008B701000840
:1000C000B7010008B7010008B7010008B701000830
:1000D000B7010008B7010008B7010008592300085C
:1000E000B7010008B7010008B7010008B701000810
:1000F000B7010008B7010008B7010008B701000800
:10010000B7010008B7010008B7010008B7010008EF
:10011000B7010008B7010008B7010008B7010008DF
:10012000B7010008B7010008B7010008B7010008CF
:10013000B70100080000000000000000B70100083F
:10014000B7010008B7010008B7010008B7010008AF
:10015000B7010008B7010008B7010008B70100089F
:10016000B7010008B7010008B7010008B70100088F
:10017000B7010008B70100080000000000000000FF
:10018000B7010008B7010008DFF80CD000F01CFA36
:1001900000480047FD240008D80400200648804796
:1001A00006480047FEE7FEE7FEE7FEE7FEE7FEE75C
:1001B000FEE7FEE7FEE7FEE7ED1C00088901000808
:1001C0002DE9F05F0546002092469B46884606468C
:1001D000814640241BE0284641464746224600F01F
:1001E00030F953465A46C01A914110D31146184669
:1001F000224600F017F92D1A67EB01084F462246F8
:100200000120002100F00EF917EB00094E41201EDD
:10021000A4F10104DFDC484631462A464346BDE8E6
:10022000F09FD2B201E000F8012B491EFBD27047CB
:100230000022F6E710B513460A4604461946FFF7B2
:10024000F0FF204610BD2DE9FE4F804681EA0300F5
:10025000C00F0C46009021F0004123F00045B8EBA0
:100260000200A94105D24046214690461C460B4655
:10027000024623F00040104347D0270DC7F30A0081
:10028000C3F30A510290401A019040286BDAC3F37D
:10029000130040F4801B0098924620B10023D2EB5B
:1002A000030A63EB0B0B01985946C0F1400250461C
:1002B00000F0B8F806460D4650465946019A00F03F
:1002C000D0F810EB08006141002487EA115284EA5B
:1002D000E7731A4340D0009A62B3019A012A4FEAA9
:1002E000075215DC001B61EB02014FF0004202EAED
:1002F0000752CDE90042001C41F5801132462B46E1
:1003000000F0D0F803B0BDE8F08F40462146F9E791
:10031000001B61EB0201001C41F5801300185B41DA
:100320002018A2F5001747EB030140EAD570B61973
:100330006D4111E06D084FEA360645EAC0754FEA97
:100340000752001B61EB0201001C41F580114908B6
:100350004FEA30000019514132462B4603B0BDE848
:10036000F04F00F090B80098012240000023D0EB3D
:10037000020263EBE073009821464FEAE074B8EBA9
:10038000000061EB0401E9E783F000435BE781F0E3
:10039000004158E70EB5C10F80EAE0700844CA0773
:1003A000002140F233438DE80E000A460B4600F070
:1003B00079F803B000BD70B5C1F30A5201F00045F1
:1003C0000024C1F3130140F2FF3341F480119A423B
:1003D00001DA002070BD40F233439A42A2F2334268
:1003E00003DC524200F02DF800E090402C43F1D0A5
:1003F000404270BD30B5041E71F1000404DB4FF0C3
:100400000044404264EB0101141E73F1000405DB5B
:100410001C464FF00043524263EB04038B4208BF7B
:10042000824230BD202A04DB203A00FA02F100208B
:1004300070479140C2F1200320FA03F31943904022
:100440007047202A04DB203A21FA02F0002170478D
:1004500021FA02F3D040C2F120029140084319462C
:100460007047202A06DBCB17203A41FA02F043EA14
:10047000E07306E041FA02F3D040C2F1200291405D
:1004800008431946704710B5141E73F1000408DACA
:10049000401C41F1000192185B411A4301D120F048
:1004A000010010BD2DE9F04D92469B4611B1B1FA05
:1004B00081F202E0B0FA80F220329046FFF7B2FFFC
:1004C00004460F4640EA0A0041EA0B0153465A46E9
:1004D000084313D0114653EA010019D0C8F1400275
:1004E0005046FFF7AEFF05460E4650465946424677
:1004F000FFF798FF084305D0012004E02046394665
:10050000BDE8F08D0020054346EAE0762C433743F2
:100510000A986305E40AA0EB08000022FD0A44EAF9
:1005200047540A3002D500200146E9E701051019B9
:100530006941DDE9084500196941BDE8F04DA2E7D0
:100540002DE9FE4FC3F30A5701F000450024C1F323
:100550000A56C3F31303C1F3130143F4801312EBE0
:10056000020AA64641F48011009543EB030CA7F163
:10057000010B16E0B0EB0A0061EB0C01071E71F1F4
:10058000000707DA4FF00008D0EB080085F00045BF
:1005900068EB0101171A73EB0107EBD3761E001805
:1005A00049415E45F6DA50EA010209D0CDE900E59D
:1005B000002213460296FFF775FF03B0BDE8F08FE7
:1005C00020460099F9E70000064C074D06E0E06878
:1005D00040F0010394E8070098471034AC42F6D38A
:1005E000FFF7D6FD3C2600085C2600082DE9F04DFB
:1005F00081EA030404F0004B21F0004514464FF05B
:10060000000A23F0004150EA050220D054EA01021A
:100610001DD0C5F30A570246C5F31303C1F31300F7
:10062000C1F30A5640F4801543F48013A7EB060883
:10063000101BD64608F2FD3873EB050002D308F113
:10064000010801E092185B41B8F1000F03DA0020C5
:100650000146BDE8F08D00204FF480110646844627
:100660000EE0171B73EB050705D3121B63EB0503A5
:1006700006434CEA010C49084FEA300092185B41EE
:1006800050EA0107EDD152EA030012D082EA0400D9
:1006900083EA0501084305D0101BAB4106D20122B5
:1006A000002306E000224FF0004302E06FF0010259
:1006B00053101AEB06004CEB085110EB0A0041EB0B
:1006C0000B01BDE8F04DFFF7DEBEFEE7704710B549
:1006D000402000F0D7F8802000F0D4F8BDE81040AA
:1006E0004FF4807000F0CEB872B6FEE710B5064C3D
:1006F0004021204600F0CAF9044908702046BDE8B0
:100700001040402100F0C2B9000402401500002052
:1007100010B5064C8021204600F0B8F90449487015
:100720002046BDE81040802100F0B0B9000402402E
:100730001500002070B5074D4FF4807421462846FF
:1007400000F0A4F90449887021462846BDE87040AD
:1007500000F09CB9000402401500002010B54FF4D1
:100760000051044800F092F908B1002010BD0120AA
:1007700010BD00000008024010B50121034800F040
:1007800085F908B1002010BD012010BD000802400D
:100790002DE9F0410446876D00F082F9064694F891
:1007A00035000025022806D08020606584F834508A
:1007B0000120BDE8F0812068016821F01601016088
:1007C0002068416921F080014161206C08B9A06C6A
:1007D00020B12068016821F00801016020680168EB
:1007E00021F0010101600CE000F05AF9801B05289E
:1007F00007D920206065032084F8350084F8345040
:10080000D7E720680068C007EED194F85C103F205D
:100810008840B860012084F8350084F83450002006
:10082000C7E790F83510022903D0802141650120E7
:100830007047052180F835100068016821F001013A
:10084000016000207047000070B5044600F028F9F0
:100850000546601C02D004480078044400F020F9EA
:10086000401BA042FAD370BD18000020044840216C
:100870000160802101608115016000F0D7BF000098
:10088000143C0140044910B50A68024202D00860D5
:10089000FFF7ECFF10BD0000143C01402DE9F84FBC
:1008A000DFF8BCA1002201250AF1040B03264FF05A
:1008B0000F090BF1040E00BF0B6805FA02F4234088
:1008C000A34270D10F7907F00307012F01D0022F47
:1008D00016D187684FEA420806FA08FC27EA0C0797
:1008E000D1F80CC00CFA08FC4CEA070CC0F808C0A0
:1008F0004768A7430C79C4F3001494403C43446018
:100900000C79E443A4070AD0C4684FEA420C06FA03
:100910000CF7BC438F6807FA0CF72743C7600C79C4
:1009200004F00304022C12D1D40800EB840CDCF890
:1009300020405707FF0E09FA07F824EA0804D1F807
:10094000108008FA07F848EA0408CCF82080046808
:100950004FEA420C06FA0CF7BC430F7907F0030785
:1009600007FA0CF7274307604C6814F4403F70D037
:100970003C4C276847F480472760246822F003072F
:1009800004F480440094384C07EB040CDCF808486D
:1009900097074FEA177809FA08F7BC43334FB84274
:1009A00002D1002724E054E0314FB84201D10127A1
:1009B0001EE0304FB84201D1022719E02E4FB84255
:1009C00001D1032714E02D4FB84201D104270FE0D5
:1009D0002B4FB84201D105270AE02A4FB84201D176
:1009E000062705E0284FB84201D1072700E0082775
:1009F00007FA08F72743CCF80878DAF8004057469A
:100A0000D1F804C09C435FEACC3C00D51C433C6059
:100A1000DBF800405F46D1F804C09C435FEA8C3CA1
:100A200000D51C433C60DEF800407746D1F804C096
:100A30009C435FEACC2C00D51C433C60084F0C372C
:100A40003C68D1F804C09C435FEA8C2C00D51C4361
:100A50003C60521C102AFFF42FAFBDE8F88F000055
:100A6000003C014044380240003001400000024098
:100A70000004024000080240000C02400010024046
:100A80000014024000180240001C024000690840A7
:100A900000D0012070470AB1816170470904FBE76B
:100AA00001488068704700001800002002488168F3
:100AB0000278114481607047180000200B4810B57F
:100AC000016841F400710160016841F480610160D6
:100AD000016841F480710160032000F071F800208A
:100AE00000F006F800F024F8002010BD003C0240A1
:100AF00070B50D4D04464FF47A712878B1FBF0F0D3
:100B00000A490968B1FBF0F000F00CFB48B9102C61
:100B100007D200222146501E00F032F800206C60FF
:100B200070BD012070BD00001800002024000020CE
:100B30000B4882B0016841F480410160006800F414
:100B4000804000900648001F016841F0805101601C
:100B5000006800F080500090052002B000F030B82E
:100B600044380240002809DB00F01F0201219140B7
:100B70004009800000F1E020C0F80011704700003B
:100B8000F0B40E4B1B680C46C3F30223C3F10705F8
:100B9000042D00D90425191D072901D2002300E0E6
:100BA000DB1E012606FA05F1491E214099409E40B0
:100BB000761E16403143F0BC01F0D5BB0CED00E0D1
:100BC000064900F0070208684FF6FF03184040EAA4
:100BD0000220034A10430860704700000CED00E05B
:100BE0000000FA052DE9F0470E46050065D0DFF854
:100BF0001481D8F80000F7B200F00700B04207D225
:100C000088F80070D8F8000000F00700B04254D116
:100C100028683D4C810712D5400703D5206840F471
:100C2000E05020602878000703D5206840F4604039
:100C300020602068A96820F0F00008432060287830
:100C4000C0072DD0304968680839012812D0022821
:100C500013D0032811D00968890700292DDA2168EB
:100C600021F0030101432160FFF71AFF814641F2A1
:100C7000883A0EE009688903EFE709688901ECE723
:100C8000FFF70EFFA0EB0901514502D90320BDE893
:100C9000F0872068696800F00C00B0EB810FEFD19D
:100CA000D8F80010404601F00701B14207D907709B
:100CB000006800F00700B04201D00120E7E7287883
:100CC000400705D52068E96820F4E050084320601B
:100CD0002878000706D52068296920F4604040EA9A
:100CE000C100206000F038F82168084AC1F3031100
:100CF000515CC8400649086006480068FFF7F8FEE6
:100D00000020C4E7003C024008380240C425000827
:100D1000240000201C0000200448054900680968E0
:100D2000044AC1F38221515CC8407047240000206E
:100D300008380240D42500080448054900680968BD
:100D4000044AC1F34231515CC8407047240000207E
:100D500008380240D4250008154810B5006810F086
:100D60000C02144813D04110042A0FD0082A0ED1C7
:100D70000F4C241F2268236802F03F025B0207D554
:100D80002068C0F38810A0FB010106E0084610BDF2
:100D90002168C1F38811A1FB00010023FFF710FABD
:100DA0002168C1F30141491C4900B0FBF1F010BDBD
:100DB000083802400024F4002DE9F84F04006ED0FA
:100DC0002078DFF84C93C007A9F104054AD009F157
:100DD00004000168C1F38101012908D00068C0F353
:100DE000810002280AD1D9F80000400206D52868FF
:100DF000800337D560680028E1D033E06068B0F543
:100E0000803F10D0B0F5A02F286810D020F480309B
:100E10002860286820F4802028606068A8B1FFF767
:100E20003FFE06460DE0286840F48030F4E740F4C9
:100E300080202860F7E700BFFFF732FE801B6428A0
:100E400073D828688003F7D50CE0FFF729FE064623
:100E500005E000BFFFF724FE801B6428F0D8286857
:100E60008003F7D42078DFF8AC8280074FF0000AC7
:100E70003ED5A748001D016811F00C0F08D000688E
:100E8000C0F3810002280BD1D9F80000400207D43A
:100E90002868800716D5E068012800D112E033E108
:100EA000E068B8B10120C8F80000FFF7F9FD064678
:100EB00005E000BFFFF7F4FD801B0228C0D82868BA
:100EC0008007F7D52868216920F0F80040EAC100C2
:100ED00028600DE0C8F800A0FFF7E2FD064604E038
:100EE000FFF7DEFD801B02281FD828688007F7D493
:100EF0002078000722D5864F87486169703771B125
:100F000001210160FFF7CCFD064604E0FFF7C8FDB4
:100F1000801B022809D838688007F7D50EE0C0F892
:100F200000A0FFF7BDFD064605E082E0FFF7B8FD33
:100F3000801B02287DD838688007F7D420784007C6
:100F400068D5DFF8CCB100270BF13C0BDBF80000D3
:100F5000C0000BD4DBF8001041F08051CBF800103A
:100F6000DBF80000012700F0805000906B4E3068E5
:100F7000C00510D4306840F480703060FFF790FDF9
:100F8000009005E0FFF78CFD0099401A022850D828
:100F90003068C005F6D55E4EA0686C3601280FD0CB
:100FA0000528306810D020F001003060306820F053
:100FB00004003060A068B8B1FFF772FD00900FE048
:100FC000306840F00100F4E740F004003060F7E7DB
:100FD000FFF766FD0099411A41F28830814266D8D8
:100FE00030688007F4D50EE0FFF75AFD009007E067
:100FF000FFF756FD0099411A41F28830814256D8D8
:1010000030688007F4D42FB1DBF8001021F0805154
:10101000CBF80010A069C8B33D49091D0968C1F3A8
:10102000810102294AD00228504607D0C8F8600042
:1010300000E03CE0FFF734FD04463BE04746C8F8DB
:101040006000FFF72DFD064605E000BFFFF728FD15
:10105000801B02282BD828688001F7D4D4E9070127
:101060000843A16A2E4A490802EB0141626A41EA3B
:101070008211084394F82C1040EA0161C9F800106D
:1010800001203866FFF70CFD044606E03EE000BF95
:10109000FFF706FD001B022809D828688001F7D554
:1010A00034E000BFFFF7FCFC001B022802D903203C
:1010B000BDE8F88F28688001F4D427E00128F7D034
:1010C000D9F80000E26900F4800191421CD1226A43
:1010D00000F03F01914217D147F6C071626A0140AA
:1010E000B1EB821F10D1A26A4FF0FF3300F4403100
:1010F00003EB5202B1EB024F06D194F82C1000F032
:101100007060B0EB016F01D00120D1E70020CFE784
:101110000438024000004742800E47420070004001
:101120000000FFFF10B5401EB0F1807F01D3012009
:1011300010BD4FF0E02460610F21601701F013F93A
:101140000020A06107202061002010BD10B590F89C
:101150003C20012A22D0012280F83C20CA688C68F9
:1011600022F4407222434C6822F4806222430C68CD
:1011700022F4006222430C6922F4805222434C691B
:1011800022F400522243C969002322F480420A4318
:1011900001684A6480F83C30002010BD022010BD78
:1011A00070B590F83C20012A32D0012480F83C40F0
:1011B000022280F83D2003685A689D6822F070067C
:1011C0000A6832435A60134B02689A4214D0B2F153
:1011D000804F11D0104B9A420ED0104B9A420BD038
:1011E0000F4B9A4208D00F4B9A4205D00E4B9A42B1
:1011F00002D00E4B9A4204D1496825F0800319436E
:10120000916080F83D40002180F83C10084670BD98
:10121000022070BD000001400004004000080040B2
:10122000000C004000040140004001400018004054
:1012300010B586B0044614216846FEF7F9FF0E4942
:101240002068884216D10D480021026842F0010250
:101250000260006800F0010005904FF4E06000902B
:101260000220CDE901010120CDE9031069460448BF
:10127000FFF714FB06B010BD0000014030380240FB
:101280000000024070B5044690F83C00002501289B
:101290000FD0012084F83C006AB1042A0FD0082A3C
:1012A00011D00C2A13D00125002084F83C002846D8
:1012B00070BD022070BD206800F076FEF4E7206863
:1012C00000F0A2FEF0E7206800F0D4FEECE7206812
:1012D00000F004FFE8E710B5040003D094F83D00E7
:1012E00010B107E0012010BD002084F83C0020462A
:1012F00000F01EF8022084F83D00211D206800F057
:10130000E1FD012084F8460084F83E0084F83F00A7
:1013100084F8400084F8410084F8420084F84300D7
:1013200084F8440084F8450084F83D00002010BD96
:1013300008B500680649884208D10648016841F0AE
:1013400001010160006800F00100009008BD00008C
:10135000000001404438024010B50446022249B161
:1013600004290ED0082913D094F84100012816D082
:10137000012010BD94F83E000128F9D184F83E20E8
:101380000FE094F83F000128F2D184F83F2008E0F4
:1013900094F840000128EBD184F8402001E084F863
:1013A00041200122206800F0F1FD16492068164A0C
:1013B000884201D0904203D1436C43F4004343641C
:1013C0002068884213D0B0F1804F10D00F49884276
:1013D0000DD00F4988420AD00E49884207D090426A
:1013E00005D00D49884202D00C49884204D1816859
:1013F00001F00701062903D0016841F001010160F5
:10140000002010BD00000140000401400004004025
:1014100000080040000C004000400140001800405F
:1014200030B504460D460068002200F0AFFD194BB0
:1014300041F2111120688A10984202D0164B98424E
:1014400009D1036A0B4206D1036A134203D1436CEC
:1014500023F4004343642068036A0B4206D1016A07
:10146000114203D1016821F00101016001203DB169
:10147000042D08D0082D09D084F84100002030BD8B
:1014800084F83E00FAE784F83F00F7E784F840006C
:10149000F4E700000000014000040140704770477D
:1014A000F8B5016804460868CA684B6910F00F0F68
:1014B0004FF0000559D003F0010602F4907737434E
:1014C00065D0C10705D0D10503D5216C41F00101DC
:1014D0002164410705D5D90703D0216C41F00201F1
:1014E0002164810705D5D90703D0216C41F004019F
:1014F0002164010707D502F02001314303D0216C9C
:1015000041F008012164216C00293AD0800604D5FD
:10151000900602D5204600F038FE20684069216C14
:10152000C0F38010090700D460B3204600F006FE27
:1015300020684069400621D52068143050E8001F1B
:1015400021F0400140E80012002AF5D1A06BA8B1BB
:101550006C490165A06BFFF764F9002811D0A06BFE
:10156000016D01B0BDE8F040084783060FD5930632
:101570000DD52046BDE8F84000F007BE2046FFF735
:101580008EFFF8BD2046FFF78AFF2564F8BD266B65
:101590002023012E79D1C60677D5D60675D50868E1
:1015A000486800904869400640D5A16B08684068CB
:1015B0000004000CEAD0A28D8242E7D9E085C86918
:1015C000B0F5807F2DD020680C3050E8001F21F44A
:1015D000807140E80012002AF5D12068143050E8EC
:1015E000001F21F0010140E80012002AF5D1206817
:1015F000143050E8001F21F0400140E80012002A9A
:10160000F5D184F83E30256320680C3050E8001F87
:1016100021F0100140E80012002AF5D1A06BFFF77D
:10162000B7F8A08DE18D401A81B229E0A08DE18D3F
:10163000401A81B2E08D0028A8D00029A6D02068E9
:101640000C3050E8002F22F4907240E80026002E63
:10165000F5D12068143050E8002F22F0010240E854
:101660000026002EF5D184F83E30256320680C302A
:1016700050E8002F22F0100240E80023002BF5D1A3
:101680002046FFF70BFFF8BDFFE705062BD5150633
:1016900029D594F83D002128F5D1A068B0F5805FE8
:1016A00001D12069B0B1206A411C21622168007813
:1016B0004860E08C401E0004000CE084E3D1206808
:1016C000C16821F08001C1602068C16841F040011B
:1016D000C160D8E7206A0088C0F308004860206A2B
:1016E000801C2062E5E74006CDD55006CBD5CA6800
:1016F000204622F04002CA6084F83D3000F094F8A1
:10170000C1E700002D21000870B5040004D094F852
:101710003D00002510B106E0012070BD84F83C506A
:10172000204600F023F8242084F83D002068C1689A
:1017300021F40051C160204600F088FD2068016955
:1017400021F4904101612068416921F02A01416141
:101750002068C16841F40051C1602564202084F8EC
:101760003D0084F83E00002070BD000010B586B03A
:10177000044614216846FEF75BFD1849206888423C
:1017800029D117480021026842F4802202600068D3
:1017900000F48020059012481038026842F00202DE
:1017A0000260006800F0020005904FF44060009075
:1017B0000220CDE90101032003900720049069462F
:1017C0000848FFF76BF8012203212720FFF7D8F91B
:1017D0002720FFF7C7F906B010BD00000048004001
:1017E0004038024000040240704790F83D30202B02
:1017F00018D1A9B1A2B190F83C30012B12D00162EE
:101800008284C28400210164212280F83D2080F876
:101810003C100068C16841F08001C1600020704741
:101820000120704702207047704700002DE9F04109
:10183000FEF75CFF8400FEF76BFF04EB4004FEF74D
:1018400079FF2044C5B22C480078032852D00026E6
:101850002A4906228846304600F096FE274C284F3B
:10186000313C2044396890F82A00484300F0C2F91E
:1018700006224146304600F087FE204490F83800AA
:1018800000F0BEF906224146304600F07DFE2044BD
:10189000396890F83F00484300F0BAF90622414603
:1018A000304600F071FE204490F8460000F0B6F992
:1018B00006224146304600F067FE2044396890F821
:1018C0004D00484300F0B2F906224146304600F090
:1018D0005BFE204490F8540000F0AEF90948017A0C
:1018E000691A11F0FF0100D00121074A1170057239
:1018F000BDE8F0812E46ABE733000020112600083A
:1019000028000020C80000202C000020FEE7000076
:10191000F0B587B014216846FEF78AFC26480024FB
:10192000016841F004010160016801F004010591C2
:10193000016841F080010160016801F080010591BA
:10194000016841F002010160016801F002010591A6
:10195000016841F0010101600068184F00F00100CA
:101960004FF460460590002231463846FFF793F861
:10197000781401258DE8310069461148FEF78EFF85
:101980000096CDE90154694638460394FEF786FF78
:10199000F01100904FF44410CDE901046946384637
:1019A000FEF77CFF002211461720FFF7E9F8172009
:1019B000FFF7D8F807B0F0BD30380240000402400D
:1019C0000008024010B592B000240F941C21684614
:1019D0001094FEF72DFC202107A8FEF729FC2D48C6
:1019E0002B4901601521C0E9011442F20F71C0E9D1
:1019F00003148021C0E90541FFF76DFC08B1FEF733
:101A000073FE0F940FA923481094FFF7C9FB08B188
:101A1000FEF76AFE3020009041F28830CDE90104E3
:101A2000039404940594002269461A480694FFF72B
:101A300029FC08B1FEF758FE4FF47A6001900422A9
:101A400069461448FFF71EFC08B1FEF74DFE40F64C
:101A5000B830CDE90040082269460E48FFF712FC75
:101A600008B1FEF741FE0794089409944FF4005022
:101A70000A94CDE90B4007A906480E94FFF766FBD0
:101A800008B1FEF731FE0348FFF7D2FB12B010BDDC
:101A9000000001403C0000200C4810B50A490160DC
:101AA0004FF4E1314160002181600C22C160C0E946
:101AB00004128161C161FFF727FE002803D0BDE851
:101AC0001040FEF711BE10BD004800408400002009
:101AD000FEE7000070B50646012000F063F8204CD8
:101AE0000522A11D304600F04FFD1E4D205C2968E7
:101AF000484300F07FF80522A11D304600F044FD68
:101B00002044007B00F07CF80522A11D304600F047
:101B10003BFD20442968807C484300F079F8052289
:101B2000A11D304600F030FD2044007E00F076F824
:101B30000522A11D304600F027FD20442968807F42
:101B4000484300F073F80522A11D304600F01CFD4B
:101B5000204490F82400BDE8704000F06DB800000B
:101B6000E0250008280000200949002009680860D5
:101B70000849087048708870C87008714871887189
:101B8000C8710549086048608860C86000F092B973
:101B9000DC2500082C000020C8000020FEE770476C
:101BA0007047000010B5114978B10120087000217C
:101BB0000F48FFF7D1FB04210D48FFF7CDFBBDE82F
:101BC000104008210A48FFF7C7BB002008700146F3
:101BD0000748FFF725FC04210548FFF721FCBDE875
:101BE000104008210248FFF71BBC00000000002045
:101BF0003C00002001490968486370473C00002010
:101C000002464FF400510148FEF745BF0004024070
:101C100001490968886370473C00002002464FF480
:101C200080410148FEF737BF0004024001490968BE
:101C3000C86370473C00002002464FF40041014851
:101C4000FEF729BF0004024010B500F057F8BDE8C8
:101C50001040FEF72BBF000030B593B0302168462E
:101C6000FEF7E6FA14210CA8FEF7E2FA1D4800255B
:101C7000016841F080510160006800F080501190CF
:101C80001948016841F4804101600068022400F4B1
:101C90008040119001200090000401908001CDE966
:101CA000064008AA0420A82182E813000B90684689
:101CB000FFF782F808B172B6FEE70CA90F2081E8A1
:101CC00031004FF4C0500F904FF4A05010900521F8
:101CD0000CA8FEF787FF002801D072B6FEE713B00C
:101CE00030BD0000403802400070004002480168EA
:101CF00041F470010160704788ED00E02DE9F05F6C
:101D00002DED028BFEF72AFD5A495B4F0128087022
:101D10007E7A04D1012E02D1B87A01280CD000219C
:101D2000DFF858A18AF80010FEF726FD5449012873
:101D30000870FD7A02D006E00121F1E7012D02D101
:101D4000387B012827D00021DFF838B18BF800104C
:101D5000FEF7CCFC8400FEF7DBFC04EB4004FEF74E
:101D6000E9FC2044C2B2484800234FF00108027049
:101D7000797B464889B1BC7B4FF003099FED448BCA
:101D80000221012C10D0022C1ED0032C28D00424B8
:101D900080F800800AE00121D6E787F80D8087F8F7
:101DA0000E80037001244AE0012403709AF8003089
:101DB000012B44D187F80E90017087ED008B1046FF
:101DC000FFF788FE02243AE080F800909BF80010AC
:101DD0000324012933D10421B97380F800802AE05B
:101DE0000224047097ED000B9FED2B1B824653ECF1
:101DF000112B51EC100BFEF7FDFA07D10220B8733E
:101E00008AF8009087ED008B032418E09BF800000F
:101E100001280CD097ED000B9FED211B51EC100B0E
:101E200053EC112BFEF70FFAC7E9000107E004207D
:101E3000B8738AF800800020FFF7B4FE042420461F
:101E4000FEF7A8FA41EC100B9FED171B00F09CFA6F
:101E500051EC100BFEF7AFFA1549087005480078F1
:101E600078720748BE720078F8723D73BDEC028B41
:101E7000BDE8F09F2D000020C80000202E000020AB
:101E80002F0000203000002031000020330000200F
:101E900000000000000000000000000000002440DE
:101EA000000000000000F03F000000000000704053
:101EB0003200002002480021417381737047000006
:101EC000C8000020F0B50268254C264D264E274F4D
:101ED000274B4FF0804CA04209D0604507D0A84264
:101EE00005D0B04203D0B84201D0984204D122F0CC
:101EF000700E4A6842EA0E02A0421BD0604519D01B
:101F0000A84217D0B04215D0B84213D0984211D091
:101F1000184DA8420ED0184DA8420BD0174DA8421C
:101F200008D0174DA84205D0164DA84202D0164D34
:101F3000A84203D122F44075CA682A434D6922F0B1
:101F400080022A4302608A68C2620A688262A042F2
:101F500001D0984201D10969016301214161F0BDBD
:101F6000000001400004004000080040000C004058
:101F7000000401400040014000440140004801408D
:101F800000180040001C00400020004010B501F087
:101F90001F030121046A99408C430462016A9A403C
:101FA0001143016210BD0000F0B5026A22F0010287
:101FB0000262036A42688469124E24F073050C6859
:101FC0002C4323F002058B682B430D4DA84201D012
:101FD000B04205D123F00807CB683B4323F004034C
:101FE000A84201D0B04205D14D6922F44072154398
:101FF0008A692A4342608461496841630362F0BD93
:102000000000014000040140F0B5026A22F0100215
:102010000262026A436884690D6824F4E64444EA73
:1020200005248D6822F0200242EA05120F4D104E61
:10203000A84201D0B04206D1CF6822F0800242EA25
:10204000071222F04002A84201D0B04207D14D69E8
:1020500023F4406343EA85038D6943EA85034360C3
:102060008461496881630262F0BD000000000140A4
:1020700000040140F0B5026A22F480720262026A32
:102080004368C46922F4007224F073050C68124E90
:102090002C438D6842EA05220E4DA84201D0B04281
:1020A00006D1CF6822F4006242EA072222F480625D
:1020B000A84201D0B04207D14D6923F4405343EA0E
:1020C00005138D6943EA05134360C4614968C16320
:1020D0000262F0BD000001400004014030B5026A18
:1020E00022F480520262046A4268C3690D6823F4D4
:1020F000E64343EA05238D6824F4005444EA05349A
:10210000084DA84202D0084DA84204D14D6922F4DE
:10211000804242EA85124260C361496801640462F8
:1021200030BD0000000001400004014010B5806B8C
:102130000021C185C184FFF7B2F910BD01680C31DF
:1021400051E8002F22F4907241E80023002BF5D1D2
:102150000168143151E8002F22F0010241E8002308
:10216000002BF5D1016B012909D101680C3151E82F
:10217000002F22F0100241E80023002BF5D120218E
:1021800080F83E1000210163704708B590F83E10BA
:10219000222901D0022008BD82684FF480539A4260
:1021A00001D1016921B1816A9A421BD04AB10AE08A
:1021B0000268816A5268C2F308020A80816A891C37
:1021C00008E0026972B10268526802F07F020A7088
:1021D000816A491C8162C18D491E0904090CC185AF
:1021E00003D019E002685268F1E70168CA6822F07A
:1021F0002002CA600168CA6822F48072CA6001685D
:102200004A6922F001024A61202180F83E10016BE8
:10221000012903D0FFF7E8FA002008BD002101637F
:1022200001680C3151E8002F22F0100241E8002330
:10223000002BF5D101680A68D20602D50A68496800
:102240000091818DFFF72AF9E6E7000070B504469A
:1022500000680169E26821F440511143016121697C
:10226000A068E26908436169114308432168CA68AC
:1022700049F20C639A430243CA6020684169A2692B
:1022800021F440711143416131492068884202D0F4
:102290003049884202D1FEF74FFD01E0FEF73CFDD8
:1022A000E2690023192164253226B2F5004F6268E5
:1022B00028D0A0FB0101930F9200FDF781FF01469A
:1022C000B0FBF5F06FF01802504301EB800006EB15
:1022D0000010B0FBF5F000F0F002B1FBF5F002EBFE
:1022E0000012B1FBF5F06FF01803584301EB8000CA
:1022F00006EB0010B0FBF5F000F00F002168104471
:10230000886070BDA0FB010192185B41FDF758FF8A
:102310000146B0FBF5F00201B1FBF5F06FF01803D8
:10232000584301EB800006EBC000B0FBF5F000F075
:10233000F80002EB4002B1FBF5F0584301EB8000DE
:1023400006EBC000B0FBF5F000F00700D6E7000098
:1023500000100140001401400148FFF7A1B800003F
:1023600084000020FEE70907090E002804DB00F1C5
:10237000E02080F80014704700F00F0000F1E0202A
:1023800080F8141D7047000010B52DED040B86B0C9
:102390009DED060B10EE100A10EE901A8DED000B5D
:1023A000002818BF0120084320F00040C0F17F60E2
:1023B00000F1E040C00F21D19DED080B10EE101A86
:1023C00010EE900A8DED000B002918BF0121084383
:1023D00020F00040C0F17F6000F1E040C00F0DD15F
:1023E00029490798B1EB400F04BF0698002842D056
:1023F0000998400004BF089800283CD09DED080BC8
:1024000053EC102B9DED060B51EC100BFEF798F8DA
:10241000CDE902019DED020B40F2FF7110EE900A32
:102420008DED000B31EA105021D00798039900F090
:10243000004001F00041884219D09DED080B8DED60
:10244000040B9DED020B8DED000B10EE900A05992B
:1024500061F31E0005909DED041B9DED020B51ECF8
:10246000110B53EC102BFDF792FFCDE902019DED0E
:10247000020B0AB010BD012000F02AF80AB0BDE836
:10248000104000F005B800000000E0FF0000000070
:102490009FED050B10B553EC102B51EC100BFEF714
:1024A000A5F841EC100B10BD00000000000000007A
:1024B00002E008C8121F08C1002AFAD1704770470D
:1024C000002001E001C1121F002AFBD1704700006B
:1024D00001490860704700003800002030B504460C
:1024E000002007E08D5CA54201D9134600E01046AC
:1024F0001A1852081D1A012DF4D830BDFEF7DEFA65
:10250000FFF7AAFB18484FF47A710068B0FBF1F0AE
:10251000FEF708FEFFF7FCF9FFF754FAFFF7BCFAE5
:10252000FFF722FB124C114D124E134FDFF84C8077
:10253000DFF84C90A4F1010A2878A0703078E070A0
:102540003878207198F80000607199F80000A07147
:102550009AF80000E071142205490A48FFF745F98E
:102560000A20FEF771F9E7E7240000202D00002083
:10257000010000202F0000202E000020300000204D
:10258000320000208400002030B5054608780C4653
:10259000A84201D3002030BDA05CA84210D9500849
:1025A000134602462846FFF799FF2118225C497816
:1025B000AA1A491BC9B2D2B29142ECD8401C30BD14
:1025C000104630BD000000000000000001020304BE
:1025D000060708090000000001020304340000207F
:1025E00000000001010001020304050600010100D2
:1025F00000000001000000010100000001000100D6
:1026000001000000000000010001000000000101C5
:1026100000000102030405060000010100000000A3
:1026200000010000000100010000000100000100A5
:102630000100000000000000010001005C2600080D
:10264000000000203C000000B0240008982600088C
:102650003C0000209C040000C024000800A5DA0310
:10266000040506070800000000000000000000004C
:102670000000000001000000100000000000000049
:102680000024F400F401000000000000000000003D
:08269000000000000000000042
:040000050800018965
:00000001FF
